{
  "contractName": "Election",
  "abi": [
    {
      "constant": true,
      "inputs": [
        {
          "internalType": "string",
          "name": "",
          "type": "string"
        }
      ],
      "name": "voteResult",
      "outputs": [
        {
          "internalType": "uint256",
          "name": "",
          "type": "uint256"
        }
      ],
      "payable": false,
      "stateMutability": "view",
      "type": "function"
    },
    {
      "constant": false,
      "inputs": [
        {
          "internalType": "string",
          "name": "_petName",
          "type": "string"
        }
      ],
      "name": "voting",
      "outputs": [],
      "payable": false,
      "stateMutability": "nonpayable",
      "type": "function"
    },
    {
      "constant": false,
      "inputs": [
        {
          "internalType": "string",
          "name": "_petName",
          "type": "string"
        }
      ],
      "name": "getPetResult",
      "outputs": [
        {
          "internalType": "uint256",
          "name": "",
          "type": "uint256"
        }
      ],
      "payable": false,
      "stateMutability": "nonpayable",
      "type": "function"
    }
  ],
  "bytecode": "0x608060405234801561001057600080fd5b506104b4806100206000396000f3fe608060405234801561001057600080fd5b50600436106100415760003560e01c806314604c05146100465780637d5529ec14610115578063e3393a6d146101e4575b600080fd5b6100ff6004803603602081101561005c57600080fd5b810190808035906020019064010000000081111561007957600080fd5b82018360208201111561008b57600080fd5b803590602001918460018302840111640100000000831117156100ad57600080fd5b91908080601f016020809104026020016040519081016040528093929190818152602001838380828437600081840152601f19601f82011690508083019250505050505050919291929050505061029f565b6040518082815260200191505060405180910390f35b6101ce6004803603602081101561012b57600080fd5b810190808035906020019064010000000081111561014857600080fd5b82018360208201111561015a57600080fd5b8035906020019184600183028401116401000000008311171561017c57600080fd5b91908080601f016020809104026020016040519081016040528093929190818152602001838380828437600081840152601f19601f820116905080830192505050505050509192919290505050610312565b6040518082815260200191505060405180910390f35b61029d600480360360208110156101fa57600080fd5b810190808035906020019064010000000081111561021757600080fd5b82018360208201111561022957600080fd5b8035906020019184600183028401116401000000008311171561024b57600080fd5b91908080601f016020809104026020016040519081016040528093929190818152602001838380828437600081840152601f19601f820116905080830192505050505050509192919290505050610340565b005b60006001826040518082805190602001908083835b602083106102d757805182526020820191506020810190506020830392506102b4565b6001836020036101000a0380198251168184511680821785525050505050509050019150509081526020016040518091039020549050919050565b6001818051602081018201805184825260208301602085012081835280955050505050506000915090505481565b80600090805190602001906103569291906103da565b50600180600060405180828054600181600116156101000203166002900480156103b75780601f106103955761010080835404028352918201916103b7565b820191906000526020600020905b8154815290600101906020018083116103a3575b505091505090815260200160405180910390206000828254019250508190555050565b828054600181600116156101000203166002900490600052602060002090601f016020900481019282601f1061041b57805160ff1916838001178555610449565b82800160010185558215610449579182015b8281111561044857825182559160200191906001019061042d565b5b509050610456919061045a565b5090565b61047c91905b80821115610478576000816000905550600101610460565b5090565b9056fea265627a7a723158202d7ca4e8089b9dc92dc38b48f65297d693cd2100dcf7b765a79de11239cd665964736f6c63430005100032",
  "source": "pragma solidity ^0.5.1; \n\ncontract Election {\n    string petName;\n    mapping (string => uint) public voteResult;\n\n    function voting (string memory _petName) public {\n        petName = _petName;\n        voteResult[petName] += 1; \n    }\n\n    function getPetResult (string memory _petName) public returns (uint){\n        return voteResult[_petName];\n    }\n}",
  "sourcePath": "/Users/yixinsun/Documents/GitHub/pet-shop-box/contracts/Election.sol",
  "compiler": {
    "name": "solc",
    "version": "0.5.16+commit.9c3226ce.Emscripten.clang"
  },
  "schemaVersion": "3.4.3",
  "updatedAt": "2021-12-04T01:15:21.560Z",
  "networkType": "ethereum",
  "devdoc": {
    "methods": {}
  },
  "userdoc": {
    "methods": {}
  }
}