{
  "contractName": "Election",
  "abi": [
    {
      "constant": true,
      "inputs": [
        {
          "internalType": "string",
          "name": "",
          "type": "string"
        }
      ],
      "name": "voteResult",
      "outputs": [
        {
          "internalType": "uint256",
          "name": "",
          "type": "uint256"
        }
      ],
      "payable": false,
      "stateMutability": "view",
      "type": "function"
    },
    {
      "constant": false,
      "inputs": [
        {
          "internalType": "string",
          "name": "_petName",
          "type": "string"
        }
      ],
      "name": "voting",
      "outputs": [],
      "payable": false,
      "stateMutability": "nonpayable",
      "type": "function"
    },
    {
      "constant": true,
      "inputs": [],
      "name": "getPetResult",
      "outputs": [
        {
          "internalType": "string",
          "name": "",
          "type": "string"
        }
      ],
      "payable": false,
      "stateMutability": "view",
      "type": "function"
    }
  ],
  "bytecode": "0x608060405234801561001057600080fd5b50610740806100206000396000f3fe608060405234801561001057600080fd5b50600436106100415760003560e01c806358055192146100465780637d5529ec146100c9578063e3393a6d14610198575b600080fd5b61004e610253565b6040518080602001828103825283818151815260200191508051906020019080838360005b8381101561008e578082015181840152602081019050610073565b50505050905090810190601f1680156100bb5780820380516001836020036101000a031916815260200191505b509250505060405180910390f35b610182600480360360208110156100df57600080fd5b81019080803590602001906401000000008111156100fc57600080fd5b82018360208201111561010e57600080fd5b8035906020019184600183028401116401000000008311171561013057600080fd5b91908080601f016020809104026020016040519081016040528093929190818152602001838380828437600081840152601f19601f82011690508083019250505050505050919291929050505061044e565b6040518082815260200191505060405180910390f35b610251600480360360208110156101ae57600080fd5b81019080803590602001906401000000008111156101cb57600080fd5b8201836020820111156101dd57600080fd5b803590602001918460018302840111640100000000831117156101ff57600080fd5b91908080601f016020809104026020016040519081016040528093929190818152602001838380828437600081840152601f19601f82011690508083019250505050505050919291929050505061047c565b005b60606000606060008090505b600180549050811015610445578260026001838154811061027c57fe5b9060005260206000200160405180828054600181600116156101000203166002900480156102e15780601f106102bf5761010080835404028352918201916102e1565b820191906000526020600020905b8154815290600101906020018083116102cd575b505091505090815260200160405180910390205411156104385760026001828154811061030a57fe5b90600052602060002001604051808280546001816001161561010002031660029004801561036f5780601f1061034d57610100808354040283529182019161036f565b820191906000526020600020905b81548152906001019060200180831161035b575b505091505090815260200160405180910390205492506001818154811061039257fe5b906000526020600020018054600181600116156101000203166002900480601f0160208091040260200160405190810160405280929190818152602001828054600181600116156101000203166002900480156104305780601f1061040557610100808354040283529160200191610430565b820191906000526020600020905b81548152906001019060200180831161041357829003601f168201915b505050505091505b808060010191505061025f565b50809250505090565b6002818051602081018201805184825260208301602085012081835280955050505050506000915090505481565b80600090805190602001906104929291906105df565b5060006002600060405180828054600181600116156101000203166002900480156104f45780601f106104d25761010080835404028352918201916104f4565b820191906000526020600020905b8154815290600101906020018083116104e0575b5050915050908152602001604051809103902054141561055b5760016000908060018154018082558091505090600182039060005260206000200160009091929091909150908054600181600116156101000203166002900461055892919061065f565b50505b60016002600060405180828054600181600116156101000203166002900480156105bc5780601f1061059a5761010080835404028352918201916105bc565b820191906000526020600020905b8154815290600101906020018083116105a8575b505091505090815260200160405180910390206000828254019250508190555050565b828054600181600116156101000203166002900490600052602060002090601f016020900481019282601f1061062057805160ff191683800117855561064e565b8280016001018555821561064e579182015b8281111561064d578251825591602001919060010190610632565b5b50905061065b91906106e6565b5090565b828054600181600116156101000203166002900490600052602060002090601f016020900481019282601f1061069857805485556106d5565b828001600101855582156106d557600052602060002091601f016020900482015b828111156106d45782548255916001019190600101906106b9565b5b5090506106e291906106e6565b5090565b61070891905b808211156107045760008160009055506001016106ec565b5090565b9056fea265627a7a72315820531239b2f89ec35da731684b078078e376b2cc0849061410167e1a110f65d87364736f6c63430005100032",
  "source": "// SPDX-License-Identifier: MIT\npragma solidity ^0.5.1;\n\ncontract Election {\n    string petName;\n    string[] petNames;\n    mapping(string => uint256) public voteResult;\n\n    function voting(string memory _petName) public {\n        petName = _petName;\n        if (voteResult[petName] == 0){\n            petNames.push(petName);\n        }\n        voteResult[petName] += 1;\n    }\n\n    function getPetResult()\n        public\n        view\n        returns (string memory)\n    {\n        uint256 maxVote;\n        string memory maxVotePet;\n        for (uint i = 0; i < petNames.length; i++){\n            if (voteResult[petNames[i]] > maxVote){\n                maxVote = voteResult[petNames[i]];\n                maxVotePet = petNames[i];\n            }\n        }\n        return maxVotePet;\n    }\n}\n",
  "sourcePath": "/Users/yixinsun/Documents/GitHub/pet-shop-box/contracts/Election.sol",
  "compiler": {
    "name": "solc",
    "version": "0.5.16+commit.9c3226ce.Emscripten.clang"
  },
  "schemaVersion": "3.4.3",
  "updatedAt": "2021-12-04T18:02:26.157Z",
  "devdoc": {
    "methods": {}
  },
  "userdoc": {
    "methods": {}
  }
}