{
  "contractName": "Filter",
  "abi": [
    {
      "constant": true,
      "inputs": [
        {
          "internalType": "uint256",
          "name": "",
          "type": "uint256"
        }
      ],
      "name": "petAge",
      "outputs": [
        {
          "internalType": "uint256",
          "name": "",
          "type": "uint256"
        }
      ],
      "payable": false,
      "stateMutability": "view",
      "type": "function"
    },
    {
      "constant": true,
      "inputs": [
        {
          "internalType": "uint256",
          "name": "",
          "type": "uint256"
        }
      ],
      "name": "petBreed",
      "outputs": [
        {
          "internalType": "string",
          "name": "",
          "type": "string"
        }
      ],
      "payable": false,
      "stateMutability": "view",
      "type": "function"
    },
    {
      "constant": true,
      "inputs": [
        {
          "internalType": "string",
          "name": "_breed",
          "type": "string"
        }
      ],
      "name": "filterByBreed",
      "outputs": [
        {
          "internalType": "uint256[16]",
          "name": "",
          "type": "uint256[16]"
        }
      ],
      "payable": false,
      "stateMutability": "view",
      "type": "function"
    },
    {
      "constant": true,
      "inputs": [
        {
          "internalType": "uint256",
          "name": "_age",
          "type": "uint256"
        }
      ],
      "name": "filterByAge",
      "outputs": [
        {
          "internalType": "uint256[16]",
          "name": "",
          "type": "uint256[16]"
        }
      ],
      "payable": false,
      "stateMutability": "view",
      "type": "function"
    },
    {
      "constant": false,
      "inputs": [],
      "name": "getPetInfos",
      "outputs": [],
      "payable": false,
      "stateMutability": "nonpayable",
      "type": "function"
    }
  ],
  "bytecode": "0x608060405234801561001057600080fd5b50610fdd806100206000396000f3fe608060405234801561001057600080fd5b50600436106100575760003560e01c80631e1834921461005c57806324dabd941461008c5780638aee1344146100bc5780639ae15991146100ec578063dc237ad0146100f6575b600080fd5b61007660048036036100719190810190610c24565b610126565b6040516100839190610e3e565b60405180910390f35b6100a660048036036100a19190810190610c24565b61013e565b6040516100b39190610e00565b60405180910390f35b6100d660048036036100d19190810190610c24565b6101c3565b6040516100e39190610e1c565b60405180910390f35b6100f4610273565b005b610110600480360361010b9190810190610be3565b6109e3565b60405161011d9190610e00565b60405180910390f35b60016020528060005260406000206000915090505481565b610146610ab2565b61014e610ab2565b60008090505b60108110156101b9576001600082815260200190815260200160002054841415610193578082826010811061018557fe5b6020020181815250506101ac565b61029a8282601081106101a257fe5b6020020181815250505b8080600101915050610154565b8192505050919050565b60006020528060005260406000206000915090508054600181600116156101000203166002900480601f01602080910402602001604051908101604052809291908181526020018280546001816001161561010002031660029004801561026b5780601f106102405761010080835404028352916020019161026b565b820191906000526020600020905b81548152906001019060200180831161024e57829003601f168201915b505050505081565b6040518060400160405280601081526020017f53636f747469736820546572726965720000000000000000000000000000000081525060008080815260200190815260200160002090805190602001906102ce929190610ad5565b506040518060400160405280601081526020017f53636f747469736820546572726965720000000000000000000000000000000081525060008060018152602001908152602001600020908051906020019061032b929190610ad5565b506040518060400160405280600e81526020017f4672656e63682042756c6c646f67000000000000000000000000000000000000815250600080600281526020019081526020016000209080519060200190610388929190610ad5565b506040518060400160405280600581526020017f426f7865720000000000000000000000000000000000000000000000000000008152506000806003815260200190815260200160002090805190602001906103e5929190610ad5565b506040518060400160405280600e81526020017f4672656e63682042756c6c646f67000000000000000000000000000000000000815250600080600481526020019081526020016000209080519060200190610442929190610ad5565b506040518060400160405280600e81526020017f4672656e63682042756c6c646f6700000000000000000000000000000000000081525060008060058152602001908152602001600020908051906020019061049f929190610ad5565b506040518060400160405280601081526020017f476f6c64656e20526574726965766572000000000000000000000000000000008152506000806006815260200190815260200160002090805190602001906104fc929190610ad5565b506040518060400160405280601081526020017f476f6c64656e2052657472696576657200000000000000000000000000000000815250600080600781526020019081526020016000209080519060200190610559929190610ad5565b506040518060400160405280600d81526020017f46726563682042756c6c646f67000000000000000000000000000000000000008152506000806008815260200190815260200160002090805190602001906105b6929190610ad5565b506040518060400160405280600581526020017f426f786572000000000000000000000000000000000000000000000000000000815250600080600981526020019081526020016000209080519060200190610613929190610ad5565b506040518060400160405280600581526020017f426f786572000000000000000000000000000000000000000000000000000000815250600080600a81526020019081526020016000209080519060200190610670929190610ad5565b506040518060400160405280601081526020017f53636f7474697368205465727269657200000000000000000000000000000000815250600080600b815260200190815260200160002090805190602001906106cd929190610ad5565b506040518060400160405280600e81526020017f4672656e63682042756c6c646f67000000000000000000000000000000000000815250600080600c8152602001908152602001600020908051906020019061072a929190610ad5565b506040518060400160405280601081526020017f476f6c64656e2052657472696576657200000000000000000000000000000000815250600080600d81526020019081526020016000209080519060200190610787929190610ad5565b506040518060400160405280601081526020017f476f6c64656e2052657472696576657200000000000000000000000000000000815250600080600e815260200190815260200160002090805190602001906107e4929190610ad5565b506040518060400160405280601081526020017f476f6c64656e2052657472696576657200000000000000000000000000000000815250600080600f81526020019081526020016000209080519060200190610841929190610ad5565b5060036001600080815260200190815260200160002081905550600360016000600181526020019081526020016000208190555060026001600060028152602001908152602001600020819055506002600160006003815260200190815260200160002081905550600260016000600481526020019081526020016000208190555060036001600060058152602001908152602001600020819055506003600160006006815260200190815260200160002081905550600360016000600781526020019081526020016000208190555060026001600060088152602001908152602001600020819055506003600160006009815260200190815260200160002081905550600260016000600a815260200190815260200160002081905550600360016000600b815260200190815260200160002081905550600360016000600c815260200190815260200160002081905550600460016000600d815260200190815260200160002081905550600260016000600e815260200190815260200160002081905550600260016000600f815260200190815260200160002081905550565b6109eb610ab2565b6109f3610ab2565b60008090505b6010811015610aa857600080828152602001908152602001600020604051602001610a249190610de9565b6040516020818303038152906040528051906020012084604051602001610a4b9190610dd2565b604051602081830303815290604052805190602001201415610a825780828260108110610a7457fe5b602002018181525050610a9b565b61029a828260108110610a9157fe5b6020020181815250505b80806001019150506109f9565b8192505050919050565b604051806102000160405280601090602082028038833980820191505090505090565b828054600181600116156101000203166002900490600052602060002090601f016020900481019282601f10610b1657805160ff1916838001178555610b44565b82800160010185558215610b44579182015b82811115610b43578251825591602001919060010190610b28565b5b509050610b519190610b55565b5090565b610b7791905b80821115610b73576000816000905550600101610b5b565b5090565b90565b600082601f830112610b8b57600080fd5b8135610b9e610b9982610e86565b610e59565b91508082526020830160208301858383011115610bba57600080fd5b610bc5838284610f30565b50505092915050565b600081359050610bdd81610f83565b92915050565b600060208284031215610bf557600080fd5b600082013567ffffffffffffffff811115610c0f57600080fd5b610c1b84828501610b7a565b91505092915050565b600060208284031215610c3657600080fd5b6000610c4484828501610bce565b91505092915050565b6000610c598383610db4565b60208301905092915050565b610c6e81610ed1565b610c788184610eff565b9250610c8382610eb2565b8060005b83811015610cb4578151610c9b8782610c4d565b9650610ca683610ef2565b925050600181019050610c87565b505050505050565b6000610cc782610ee7565b610cd18185610f1b565b9350610ce1818560208601610f3f565b80840191505092915050565b6000610cf882610edc565b610d028185610f0a565b9350610d12818560208601610f3f565b610d1b81610f72565b840191505092915050565b600081546001811660008114610d435760018114610d6857610dac565b607f6002830416610d548187610f1b565b955060ff1983168652808601935050610dac565b60028204610d768187610f1b565b9550610d8185610ebc565b60005b82811015610da357815481890152600182019150602081019050610d84565b82880195505050505b505092915050565b610dbd81610f26565b82525050565b610dcc81610f26565b82525050565b6000610dde8284610cbc565b915081905092915050565b6000610df58284610d26565b915081905092915050565b600061020082019050610e166000830184610c65565b92915050565b60006020820190508181036000830152610e368184610ced565b905092915050565b6000602082019050610e536000830184610dc3565b92915050565b6000604051905081810181811067ffffffffffffffff82111715610e7c57600080fd5b8060405250919050565b600067ffffffffffffffff821115610e9d57600080fd5b601f19601f8301169050602081019050919050565b6000819050919050565b60008190508160005260206000209050919050565b600060109050919050565b600081519050919050565b600081519050919050565b6000602082019050919050565b600081905092915050565b600082825260208201905092915050565b600081905092915050565b6000819050919050565b82818337600083830152505050565b60005b83811015610f5d578082015181840152602081019050610f42565b83811115610f6c576000848401525b50505050565b6000601f19601f8301169050919050565b610f8c81610f26565b8114610f9757600080fd5b5056fea365627a7a7231582038ac43d1bfa8d6b31f616862c5189f75e51dbf234f3bb059e780ddb884beeb1e6c6578706572696d656e74616cf564736f6c63430005100040",
  "source": "pragma solidity ^0.5.1;\npragma experimental ABIEncoderV2;\n\ncontract Filter{\n    mapping (uint => string) public petBreed;\n    mapping (uint => uint) public petAge;\n\n    function filterByBreed(string memory _breed) public view returns (uint[16] memory) {\n        uint[16] memory petIdList;\n        uint i;\n        for (i = 0; i < 16; i++) {\n            if (keccak256(abi.encodePacked(_breed)) == keccak256(abi.encodePacked(petBreed[i]))){\n                petIdList[i] = i;\n            } else {\n                petIdList[i] = 666;\n            }\n        }\n        return petIdList;\n    }\n\n    function filterByAge(uint _age) public view returns (uint[16] memory) {\n        uint[16] memory petIdList;\n        uint i;\n        for (i = 0; i < 16; i++) {\n            if (_age == petAge[i]){\n                petIdList[i] = i;\n            } else {\n                petIdList[i] = 666;\n            }\n        }\n        return petIdList;\n    }\n    \n    function getPetInfos() public {\n        petBreed[0] = \"Scottish Terrier\";\n        petBreed[1] = \"Scottish Terrier\";\n        petBreed[2] = \"French Bulldog\";\n        petBreed[3] = \"Boxer\";\n        petBreed[4] = \"French Bulldog\";\n        petBreed[5] = \"French Bulldog\";\n        petBreed[6] = \"Golden Retriever\";\n        petBreed[7] = \"Golden Retriever\";\n        petBreed[8] = \"Frech Bulldog\";\n        petBreed[9] = \"Boxer\";\n        petBreed[10] = \"Boxer\";\n        petBreed[11] = \"Scottish Terrier\";\n        petBreed[12] = \"French Bulldog\";\n        petBreed[13] = \"Golden Retriever\";\n        petBreed[14] = \"Golden Retriever\";\n        petBreed[15] = \"Golden Retriever\";\n        petAge[0] = 3;\n        petAge[1] = 3;\n        petAge[2] = 2;\n        petAge[3] = 2;\n        petAge[4] = 2;\n        petAge[5] = 3;\n        petAge[6] = 3;\n        petAge[7] = 3;\n        petAge[8] = 2;\n        petAge[9] = 3;\n        petAge[10] = 2;\n        petAge[11] = 3;\n        petAge[12] = 3;\n        petAge[13] = 4;\n        petAge[14] = 2;\n        petAge[15] = 2;\n    }\n}",
  "sourcePath": "/Users/wuhan/Desktop/web_projects/Project/petshop/pet-shop-box/contracts/Filter.sol",
  "compiler": {
    "name": "solc",
    "version": "0.5.16+commit.9c3226ce.Emscripten.clang"
  },
  "schemaVersion": "3.4.3",
  "updatedAt": "2021-12-14T03:04:49.624Z",
  "networkType": "ethereum",
  "devdoc": {
    "methods": {}
  },
  "userdoc": {
    "methods": {}
  }
}