{
  "contractName": "Purchase",
  "abi": [
    {
      "constant": true,
      "inputs": [
        {
          "internalType": "uint256",
          "name": "",
          "type": "uint256"
        }
      ],
      "name": "buyers",
      "outputs": [
        {
          "internalType": "address",
          "name": "",
          "type": "address"
        }
      ],
      "payable": false,
      "stateMutability": "view",
      "type": "function"
    },
    {
      "constant": true,
      "inputs": [
        {
          "internalType": "address",
          "name": "",
          "type": "address"
        }
      ],
      "name": "purchaseMap",
      "outputs": [
        {
          "internalType": "uint256",
          "name": "",
          "type": "uint256"
        }
      ],
      "payable": false,
      "stateMutability": "view",
      "type": "function"
    },
    {
      "constant": false,
      "inputs": [
        {
          "internalType": "uint256",
          "name": "petId",
          "type": "uint256"
        }
      ],
      "name": "purchase",
      "outputs": [
        {
          "internalType": "uint256",
          "name": "",
          "type": "uint256"
        }
      ],
      "payable": true,
      "stateMutability": "payable",
      "type": "function"
    },
    {
      "constant": true,
      "inputs": [],
      "name": "getBuyers",
      "outputs": [
        {
          "internalType": "address[16]",
          "name": "",
          "type": "address[16]"
        }
      ],
      "payable": false,
      "stateMutability": "view",
      "type": "function"
    }
  ],
  "bytecode": "0x608060405234801561001057600080fd5b50610385806100206000396000f3fe60806040526004361061003f5760003560e01c80637bc2f4a414610044578063efef39a1146100a9578063f2aa8218146100eb578063f64bfaba14610166575b600080fd5b34801561005057600080fd5b506100936004803603602081101561006757600080fd5b81019080803573ffffffffffffffffffffffffffffffffffffffff1690602001909291905050506101b9565b6040518082815260200191505060405180910390f35b6100d5600480360360208110156100bf57600080fd5b81019080803590602001909291905050506101d1565b6040518082815260200191505060405180910390f35b3480156100f757600080fd5b506101246004803603602081101561010e57600080fd5b8101908080359060200190929190505050610279565b604051808273ffffffffffffffffffffffffffffffffffffffff1673ffffffffffffffffffffffffffffffffffffffff16815260200191505060405180910390f35b34801561017257600080fd5b5061017b6102ac565b6040518082601060200280838360005b838110156101a657808201518184015260208101905061018b565b5050505090500191505060405180910390f35b60106020528060005260406000206000915090505481565b6000808210156101e057600080fd5b33600083601081106101ee57fe5b0160006101000a81548173ffffffffffffffffffffffffffffffffffffffff021916908373ffffffffffffffffffffffffffffffffffffffff16021790555034601060003373ffffffffffffffffffffffffffffffffffffffff1673ffffffffffffffffffffffffffffffffffffffff16815260200190815260200160002081905550819050919050565b6000816010811061028657fe5b016000915054906101000a900473ffffffffffffffffffffffffffffffffffffffff1681565b6102b461032d565b6000601080602002604051908101604052809291908260108015610323576020028201915b8160009054906101000a900473ffffffffffffffffffffffffffffffffffffffff1673ffffffffffffffffffffffffffffffffffffffff16815260200190600101908083116102d9575b5050505050905090565b60405180610200016040528060109060208202803883398082019150509050509056fea265627a7a7231582053d6edda1d405a30b040b256f442c8f83fa3aa1f76b2f7f0fb6d8f6c92f76f1a64736f6c63430005100032",
  "source": "// SPDX-License-Identifier: MIT\npragma solidity ^0.5.1;\n\ncontract Purchase {\n    address[16] public buyers;\n    mapping(address => uint) public purchaseMap;\n\n    function purchase(uint petId) public payable returns (uint) {\n        require (petId >= 0);\n        buyers[petId] = msg.sender;\n        purchaseMap[msg.sender] = msg.value;\n        return petId;\n    }\n\n    function getBuyers() public view returns (address[16] memory){\n        return buyers;\n    }\n}\n\n",
  "sourcePath": "/Users/wuhan/Desktop/web_projects/Project/petshop/pet-shop-box/contracts/Purchase.sol",
  "compiler": {
    "name": "solc",
    "version": "0.5.16+commit.9c3226ce.Emscripten.clang"
  },
  "schemaVersion": "3.4.3",
  "updatedAt": "2021-12-14T03:04:49.615Z",
  "networkType": "ethereum",
  "devdoc": {
    "methods": {}
  },
  "userdoc": {
    "methods": {}
  }
}